{
  "contractName": "MyLittlePreciousTokenV2",
  "abi": [
    {
      "inputs": [
        {
          "internalType": "string",
          "name": "getName",
          "type": "string"
        },
        {
          "internalType": "string",
          "name": "getSymbol",
          "type": "string"
        }
      ],
      "stateMutability": "nonpayable",
      "type": "constructor"
    },
    {
      "anonymous": false,
      "inputs": [
        {
          "indexed": true,
          "internalType": "address",
          "name": "owner",
          "type": "address"
        },
        {
          "indexed": true,
          "internalType": "address",
          "name": "spender",
          "type": "address"
        },
        {
          "indexed": false,
          "internalType": "uint256",
          "name": "amount",
          "type": "uint256"
        }
      ],
      "name": "Approval",
      "type": "event"
    },
    {
      "anonymous": false,
      "inputs": [
        {
          "indexed": true,
          "internalType": "address",
          "name": "preOwner",
          "type": "address"
        },
        {
          "indexed": true,
          "internalType": "address",
          "name": "nextOwner",
          "type": "address"
        }
      ],
      "name": "OwnershipTransferred",
      "type": "event"
    },
    {
      "anonymous": false,
      "inputs": [
        {
          "indexed": true,
          "internalType": "address",
          "name": "from",
          "type": "address"
        },
        {
          "indexed": true,
          "internalType": "address",
          "name": "to",
          "type": "address"
        },
        {
          "indexed": false,
          "internalType": "uint256",
          "name": "amount",
          "type": "uint256"
        }
      ],
      "name": "Transfer",
      "type": "event"
    },
    {
      "anonymous": false,
      "inputs": [
        {
          "indexed": true,
          "internalType": "address",
          "name": "spender",
          "type": "address"
        },
        {
          "indexed": true,
          "internalType": "address",
          "name": "from",
          "type": "address"
        },
        {
          "indexed": true,
          "internalType": "address",
          "name": "to",
          "type": "address"
        },
        {
          "indexed": false,
          "internalType": "uint256",
          "name": "amount",
          "type": "uint256"
        }
      ],
      "name": "Transfer",
      "type": "event"
    },
    {
      "inputs": [
        {
          "internalType": "address",
          "name": "",
          "type": "address"
        },
        {
          "internalType": "address",
          "name": "",
          "type": "address"
        }
      ],
      "name": "_allowances",
      "outputs": [
        {
          "internalType": "uint256",
          "name": "",
          "type": "uint256"
        }
      ],
      "stateMutability": "view",
      "type": "function",
      "constant": true
    },
    {
      "inputs": [],
      "name": "_decimals",
      "outputs": [
        {
          "internalType": "uint8",
          "name": "",
          "type": "uint8"
        }
      ],
      "stateMutability": "view",
      "type": "function",
      "constant": true
    },
    {
      "inputs": [],
      "name": "_name",
      "outputs": [
        {
          "internalType": "string",
          "name": "",
          "type": "string"
        }
      ],
      "stateMutability": "view",
      "type": "function",
      "constant": true
    },
    {
      "inputs": [
        {
          "internalType": "address",
          "name": "",
          "type": "address"
        }
      ],
      "name": "_personalTokenLock",
      "outputs": [
        {
          "internalType": "bool",
          "name": "",
          "type": "bool"
        }
      ],
      "stateMutability": "view",
      "type": "function",
      "constant": true
    },
    {
      "inputs": [],
      "name": "_symbol",
      "outputs": [
        {
          "internalType": "string",
          "name": "",
          "type": "string"
        }
      ],
      "stateMutability": "view",
      "type": "function",
      "constant": true
    },
    {
      "inputs": [],
      "name": "_tokenLock",
      "outputs": [
        {
          "internalType": "bool",
          "name": "",
          "type": "bool"
        }
      ],
      "stateMutability": "view",
      "type": "function",
      "constant": true
    },
    {
      "inputs": [],
      "name": "_totalSupply",
      "outputs": [
        {
          "internalType": "uint256",
          "name": "",
          "type": "uint256"
        }
      ],
      "stateMutability": "view",
      "type": "function",
      "constant": true
    },
    {
      "inputs": [],
      "name": "owner",
      "outputs": [
        {
          "internalType": "address",
          "name": "",
          "type": "address"
        }
      ],
      "stateMutability": "view",
      "type": "function",
      "constant": true
    },
    {
      "inputs": [
        {
          "internalType": "address",
          "name": "newOwner",
          "type": "address"
        }
      ],
      "name": "transferOwnership",
      "outputs": [],
      "stateMutability": "nonpayable",
      "type": "function"
    },
    {
      "inputs": [],
      "name": "name",
      "outputs": [
        {
          "internalType": "string",
          "name": "",
          "type": "string"
        }
      ],
      "stateMutability": "view",
      "type": "function",
      "constant": true
    },
    {
      "inputs": [],
      "name": "symbol",
      "outputs": [
        {
          "internalType": "string",
          "name": "",
          "type": "string"
        }
      ],
      "stateMutability": "view",
      "type": "function",
      "constant": true
    },
    {
      "inputs": [],
      "name": "decimals",
      "outputs": [
        {
          "internalType": "uint8",
          "name": "",
          "type": "uint8"
        }
      ],
      "stateMutability": "view",
      "type": "function",
      "constant": true
    },
    {
      "inputs": [],
      "name": "totalSupply",
      "outputs": [
        {
          "internalType": "uint256",
          "name": "",
          "type": "uint256"
        }
      ],
      "stateMutability": "view",
      "type": "function",
      "constant": true
    },
    {
      "inputs": [
        {
          "internalType": "address",
          "name": "account",
          "type": "address"
        }
      ],
      "name": "balanceOf",
      "outputs": [
        {
          "internalType": "uint256",
          "name": "",
          "type": "uint256"
        }
      ],
      "stateMutability": "view",
      "type": "function",
      "constant": true
    },
    {
      "inputs": [
        {
          "internalType": "address",
          "name": "recipient",
          "type": "address"
        },
        {
          "internalType": "uint256",
          "name": "amount",
          "type": "uint256"
        }
      ],
      "name": "transfer",
      "outputs": [
        {
          "internalType": "bool",
          "name": "",
          "type": "bool"
        }
      ],
      "stateMutability": "nonpayable",
      "type": "function"
    },
    {
      "inputs": [
        {
          "internalType": "address",
          "name": "owner",
          "type": "address"
        },
        {
          "internalType": "address",
          "name": "spender",
          "type": "address"
        }
      ],
      "name": "allowance",
      "outputs": [
        {
          "internalType": "uint256",
          "name": "",
          "type": "uint256"
        }
      ],
      "stateMutability": "view",
      "type": "function",
      "constant": true
    },
    {
      "inputs": [
        {
          "internalType": "address",
          "name": "spender",
          "type": "address"
        },
        {
          "internalType": "uint256",
          "name": "amount",
          "type": "uint256"
        }
      ],
      "name": "approve",
      "outputs": [
        {
          "internalType": "bool",
          "name": "",
          "type": "bool"
        }
      ],
      "stateMutability": "nonpayable",
      "type": "function"
    },
    {
      "inputs": [
        {
          "internalType": "address",
          "name": "sender",
          "type": "address"
        },
        {
          "internalType": "address",
          "name": "recipient",
          "type": "address"
        },
        {
          "internalType": "uint256",
          "name": "amount",
          "type": "uint256"
        }
      ],
      "name": "transferFrom",
      "outputs": [
        {
          "internalType": "bool",
          "name": "",
          "type": "bool"
        }
      ],
      "stateMutability": "nonpayable",
      "type": "function"
    },
    {
      "inputs": [
        {
          "internalType": "address",
          "name": "from",
          "type": "address"
        },
        {
          "internalType": "address",
          "name": "to",
          "type": "address"
        }
      ],
      "name": "isTokenLock",
      "outputs": [
        {
          "internalType": "bool",
          "name": "lock",
          "type": "bool"
        }
      ],
      "stateMutability": "view",
      "type": "function",
      "constant": true
    },
    {
      "inputs": [],
      "name": "removeTokenLock",
      "outputs": [],
      "stateMutability": "nonpayable",
      "type": "function"
    },
    {
      "inputs": [
        {
          "internalType": "address",
          "name": "_who",
          "type": "address"
        }
      ],
      "name": "removePersonalTokenLock",
      "outputs": [],
      "stateMutability": "nonpayable",
      "type": "function"
    }
  ],
  "bytecode": "0x60806040523480156200001157600080fd5b506040516200211f3803806200211f83398181016040528101906200003791906200038b565b336000806101000a81548173ffffffffffffffffffffffffffffffffffffffff021916908373ffffffffffffffffffffffffffffffffffffffff16021790555081600490805190602001906200008f9291906200013e565b508060059080519060200190620000a89291906200013e565b506012600660006101000a81548160ff021916908360ff160217905550683635c9adc5dea00000600381905550600354600160003373ffffffffffffffffffffffffffffffffffffffff1673ffffffffffffffffffffffffffffffffffffffff168152602001908152602001600020819055506001600660016101000a81548160ff021916908315150217905550505062000475565b8280546200014c906200043f565b90600052602060002090601f016020900481019282620001705760008555620001bc565b82601f106200018b57805160ff1916838001178555620001bc565b82800160010185558215620001bc579182015b82811115620001bb5782518255916020019190600101906200019e565b5b509050620001cb9190620001cf565b5090565b5b80821115620001ea576000816000905550600101620001d0565b5090565b6000604051905090565b600080fd5b600080fd5b600080fd5b600080fd5b6000601f19601f8301169050919050565b7f4e487b7100000000000000000000000000000000000000000000000000000000600052604160045260246000fd5b62000257826200020c565b810181811067ffffffffffffffff821117156200027957620002786200021d565b5b80604052505050565b60006200028e620001ee565b90506200029c82826200024c565b919050565b600067ffffffffffffffff821115620002bf57620002be6200021d565b5b620002ca826200020c565b9050602081019050919050565b60005b83811015620002f7578082015181840152602081019050620002da565b8381111562000307576000848401525b50505050565b6000620003246200031e84620002a1565b62000282565b90508281526020810184848401111562000343576200034262000207565b5b62000350848285620002d7565b509392505050565b600082601f83011262000370576200036f62000202565b5b8151620003828482602086016200030d565b91505092915050565b60008060408385031215620003a557620003a4620001f8565b5b600083015167ffffffffffffffff811115620003c657620003c5620001fd565b5b620003d48582860162000358565b925050602083015167ffffffffffffffff811115620003f857620003f7620001fd565b5b620004068582860162000358565b9150509250929050565b7f4e487b7100000000000000000000000000000000000000000000000000000000600052602260045260246000fd5b600060028204905060018216806200045857607f821691505b602082108114156200046f576200046e62000410565b5b50919050565b611c9a80620004856000396000f3fe608060405234801561001057600080fd5b50600436106101375760003560e01c806369712ffa116100b8578063b09f12661161007c578063b09f126614610354578063d27ac65b14610372578063d28d8852146103a2578063dd62ed3e146103c0578063f2fde38b146103f0578063f9ca25611461040c57610137565b806369712ffa146102ae57806370a08231146102b85780638da5cb5b146102e857806395d89b4114610306578063a9059cbb1461032457610137565b806323b872dd116100ff57806323b872dd146101f4578063313ce5671461022457806332424aa3146102425780633eaaf86b1461026057806343e204b31461027e57610137565b8063024c2ddd1461013c57806306fdde031461016c578063095ea7b31461018a578063130a39b1146101ba57806318160ddd146101d6575b600080fd5b610156600480360381019061015191906113ff565b61042a565b6040516101639190611458565b60405180910390f35b61017461044f565b604051610181919061150c565b60405180910390f35b6101a4600480360381019061019f919061155a565b6104e1565b6040516101b191906115b5565b60405180910390f35b6101d460048036038101906101cf91906115d0565b6104f8565b005b6101de61063e565b6040516101eb9190611458565b60405180910390f35b61020e600480360381019061020991906115fd565b610648565b60405161021b91906115b5565b60405180910390f35b61022c6107be565b604051610239919061166c565b60405180910390f35b61024a6107d5565b604051610257919061166c565b60405180910390f35b6102686107e8565b6040516102759190611458565b60405180910390f35b610298600480360381019061029391906113ff565b6107ee565b6040516102a591906115b5565b60405180910390f35b6102b66108d0565b005b6102d260048036038101906102cd91906115d0565b61099b565b6040516102df9190611458565b60405180910390f35b6102f06109e4565b6040516102fd9190611696565b60405180910390f35b61030e610a0d565b60405161031b919061150c565b60405180910390f35b61033e6004803603810190610339919061155a565b610a9f565b60405161034b91906115b5565b60405180910390f35b61035c610b1b565b604051610369919061150c565b60405180910390f35b61038c600480360381019061038791906115d0565b610ba9565b60405161039991906115b5565b60405180910390f35b6103aa610bc9565b6040516103b7919061150c565b60405180910390f35b6103da60048036038101906103d591906113ff565b610c57565b6040516103e79190611458565b60405180910390f35b61040a600480360381019061040591906115d0565b610cde565b005b610414610ec3565b60405161042191906115b5565b60405180910390f35b6002602052816000526040600020602052806000526040600020600091509150505481565b60606004805461045e906116e0565b80601f016020809104026020016040519081016040528092919081815260200182805461048a906116e0565b80156104d75780601f106104ac576101008083540402835291602001916104d7565b820191906000526020600020905b8154815290600101906020018083116104ba57829003601f168201915b5050505050905090565b60006104ee338484610ed6565b6001905092915050565b60008054906101000a900473ffffffffffffffffffffffffffffffffffffffff1673ffffffffffffffffffffffffffffffffffffffff163373ffffffffffffffffffffffffffffffffffffffff1614610586576040517f08c379a000000000000000000000000000000000000000000000000000000000815260040161057d9061175e565b60405180910390fd5b60011515600760008373ffffffffffffffffffffffffffffffffffffffff1673ffffffffffffffffffffffffffffffffffffffff16815260200190815260200160002060009054906101000a900460ff161515146105e357600080fd5b6000600760008373ffffffffffffffffffffffffffffffffffffffff1673ffffffffffffffffffffffffffffffffffffffff16815260200190815260200160002060006101000a81548160ff02191690831515021790555050565b6000600354905090565b60006106558484846110a1565b8273ffffffffffffffffffffffffffffffffffffffff168473ffffffffffffffffffffffffffffffffffffffff163373ffffffffffffffffffffffffffffffffffffffff167fd1398bee19313d6bf672ccb116e51f4a1a947e91c757907f51fbb5b5e56c698f856040516106c99190611458565b60405180910390a46000600260008673ffffffffffffffffffffffffffffffffffffffff1673ffffffffffffffffffffffffffffffffffffffff16815260200190815260200160002060003373ffffffffffffffffffffffffffffffffffffffff1673ffffffffffffffffffffffffffffffffffffffff16815260200190815260200160002054905082811015610795576040517f08c379a000000000000000000000000000000000000000000000000000000000815260040161078c906117f0565b60405180910390fd5b6107b285336107ad868561134990919063ffffffff16565b610ed6565b60019150509392505050565b6000600660009054906101000a900460ff16905090565b600660009054906101000a900460ff1681565b60035481565b600060011515600660019054906101000a900460ff161515141561081157600190505b60011515600760008573ffffffffffffffffffffffffffffffffffffffff1673ffffffffffffffffffffffffffffffffffffffff16815260200190815260200160002060009054906101000a900460ff16151514806108c0575060011515600760008473ffffffffffffffffffffffffffffffffffffffff1673ffffffffffffffffffffffffffffffffffffffff16815260200190815260200160002060009054906101000a900460ff161515145b156108ca57600190505b92915050565b60008054906101000a900473ffffffffffffffffffffffffffffffffffffffff1673ffffffffffffffffffffffffffffffffffffffff163373ffffffffffffffffffffffffffffffffffffffff161461095e576040517f08c379a00000000000000000000000000000000000000000000000000000000081526004016109559061175e565b60405180910390fd5b60011515600660019054906101000a900460ff1615151461097e57600080fd5b6000600660016101000a81548160ff021916908315150217905550565b6000600160008373ffffffffffffffffffffffffffffffffffffffff1673ffffffffffffffffffffffffffffffffffffffff168152602001908152602001600020549050919050565b60008060009054906101000a900473ffffffffffffffffffffffffffffffffffffffff16905090565b606060058054610a1c906116e0565b80601f0160208091040260200160405190810160405280929190818152602001828054610a48906116e0565b8015610a955780601f10610a6a57610100808354040283529160200191610a95565b820191906000526020600020905b815481529060010190602001808311610a7857829003601f168201915b5050505050905090565b6000610aac3384846110a1565b8273ffffffffffffffffffffffffffffffffffffffff163373ffffffffffffffffffffffffffffffffffffffff167fddf252ad1be2c89b69c2b068fc378daa952ba7f163c4a11628f55a4df523b3ef84604051610b099190611458565b60405180910390a36001905092915050565b60058054610b28906116e0565b80601f0160208091040260200160405190810160405280929190818152602001828054610b54906116e0565b8015610ba15780601f10610b7657610100808354040283529160200191610ba1565b820191906000526020600020905b815481529060010190602001808311610b8457829003601f168201915b505050505081565b60076020528060005260406000206000915054906101000a900460ff1681565b60048054610bd6906116e0565b80601f0160208091040260200160405190810160405280929190818152602001828054610c02906116e0565b8015610c4f5780601f10610c2457610100808354040283529160200191610c4f565b820191906000526020600020905b815481529060010190602001808311610c3257829003601f168201915b505050505081565b6000600260008473ffffffffffffffffffffffffffffffffffffffff1673ffffffffffffffffffffffffffffffffffffffff16815260200190815260200160002060008373ffffffffffffffffffffffffffffffffffffffff1673ffffffffffffffffffffffffffffffffffffffff16815260200190815260200160002054905092915050565b60008054906101000a900473ffffffffffffffffffffffffffffffffffffffff1673ffffffffffffffffffffffffffffffffffffffff163373ffffffffffffffffffffffffffffffffffffffff1614610d6c576040517f08c379a0000000000000000000000000000000000000000000000000000000008152600401610d639061175e565b60405180910390fd5b60008054906101000a900473ffffffffffffffffffffffffffffffffffffffff1673ffffffffffffffffffffffffffffffffffffffff168173ffffffffffffffffffffffffffffffffffffffff161415610dc557600080fd5b600073ffffffffffffffffffffffffffffffffffffffff168173ffffffffffffffffffffffffffffffffffffffff161415610dff57600080fd5b60008060009054906101000a900473ffffffffffffffffffffffffffffffffffffffff169050816000806101000a81548173ffffffffffffffffffffffffffffffffffffffff021916908373ffffffffffffffffffffffffffffffffffffffff1602179055508173ffffffffffffffffffffffffffffffffffffffff168173ffffffffffffffffffffffffffffffffffffffff167f8be0079c531659141344cd1fd0a4f28419497f9722a3daafe3b4186f6b6457e060405160405180910390a35050565b600660019054906101000a900460ff1681565b600073ffffffffffffffffffffffffffffffffffffffff168373ffffffffffffffffffffffffffffffffffffffff161415610f46576040517f08c379a0000000000000000000000000000000000000000000000000000000008152600401610f3d90611882565b60405180910390fd5b600073ffffffffffffffffffffffffffffffffffffffff168273ffffffffffffffffffffffffffffffffffffffff161415610fb6576040517f08c379a0000000000000000000000000000000000000000000000000000000008152600401610fad90611914565b60405180910390fd5b80600260008573ffffffffffffffffffffffffffffffffffffffff1673ffffffffffffffffffffffffffffffffffffffff16815260200190815260200160002060008473ffffffffffffffffffffffffffffffffffffffff1673ffffffffffffffffffffffffffffffffffffffff168152602001908152602001600020819055508173ffffffffffffffffffffffffffffffffffffffff168373ffffffffffffffffffffffffffffffffffffffff167f8c5be1e5ebec7d5bd14f71427d1e84f3dd0314c0f7b2291e5b200ac8c7c3b925836040516110949190611458565b60405180910390a3505050565b600073ffffffffffffffffffffffffffffffffffffffff168373ffffffffffffffffffffffffffffffffffffffff161415611111576040517f08c379a0000000000000000000000000000000000000000000000000000000008152600401611108906119a6565b60405180910390fd5b600073ffffffffffffffffffffffffffffffffffffffff168273ffffffffffffffffffffffffffffffffffffffff161415611181576040517f08c379a000000000000000000000000000000000000000000000000000000000815260040161117890611a38565b60405180910390fd5b6000151561118f84846107ee565b1515146111d1576040517f08c379a00000000000000000000000000000000000000000000000000000000081526004016111c890611aca565b60405180910390fd5b6000600160008573ffffffffffffffffffffffffffffffffffffffff1673ffffffffffffffffffffffffffffffffffffffff16815260200190815260200160002054905081811015611258576040517f08c379a000000000000000000000000000000000000000000000000000000000815260040161124f90611b5c565b60405180910390fd5b61126b828261134990919063ffffffff16565b600160008673ffffffffffffffffffffffffffffffffffffffff1673ffffffffffffffffffffffffffffffffffffffff1681526020019081526020016000208190555061130082600160008673ffffffffffffffffffffffffffffffffffffffff1673ffffffffffffffffffffffffffffffffffffffff1681526020019081526020016000205461137090919063ffffffff16565b600160008573ffffffffffffffffffffffffffffffffffffffff1673ffffffffffffffffffffffffffffffffffffffff1681526020019081526020016000208190555050505050565b60008282111561135c5761135b611b7c565b5b81836113689190611bda565b905092915050565b600080828461137f9190611c0e565b90508381101561139257611391611b7c565b5b8091505092915050565b600080fd5b600073ffffffffffffffffffffffffffffffffffffffff82169050919050565b60006113cc826113a1565b9050919050565b6113dc816113c1565b81146113e757600080fd5b50565b6000813590506113f9816113d3565b92915050565b600080604083850312156114165761141561139c565b5b6000611424858286016113ea565b9250506020611435858286016113ea565b9150509250929050565b6000819050919050565b6114528161143f565b82525050565b600060208201905061146d6000830184611449565b92915050565b600081519050919050565b600082825260208201905092915050565b60005b838110156114ad578082015181840152602081019050611492565b838111156114bc576000848401525b50505050565b6000601f19601f8301169050919050565b60006114de82611473565b6114e8818561147e565b93506114f881856020860161148f565b611501816114c2565b840191505092915050565b6000602082019050818103600083015261152681846114d3565b905092915050565b6115378161143f565b811461154257600080fd5b50565b6000813590506115548161152e565b92915050565b600080604083850312156115715761157061139c565b5b600061157f858286016113ea565b925050602061159085828601611545565b9150509250929050565b60008115159050919050565b6115af8161159a565b82525050565b60006020820190506115ca60008301846115a6565b92915050565b6000602082840312156115e6576115e561139c565b5b60006115f4848285016113ea565b91505092915050565b6000806000606084860312156116165761161561139c565b5b6000611624868287016113ea565b9350506020611635868287016113ea565b925050604061164686828701611545565b9150509250925092565b600060ff82169050919050565b61166681611650565b82525050565b6000602082019050611681600083018461165d565b92915050565b611690816113c1565b82525050565b60006020820190506116ab6000830184611687565b92915050565b7f4e487b7100000000000000000000000000000000000000000000000000000000600052602260045260246000fd5b600060028204905060018216806116f857607f821691505b6020821081141561170c5761170b6116b1565b5b50919050565b7f4f776e657248656c7065723a2063616c6c6572206973206e6f74206f776e6572600082015250565b600061174860208361147e565b915061175382611712565b602082019050919050565b600060208201905081810360008301526117778161173b565b9050919050565b7f45524332303a207472616e7366657220616d6f756e742065786365656473206160008201527f6c6c6f77616e6365000000000000000000000000000000000000000000000000602082015250565b60006117da60288361147e565b91506117e58261177e565b604082019050919050565b60006020820190508181036000830152611809816117cd565b9050919050565b7f45524332303a20617070726f76652066726f6d20746865207a65726f2061646460008201527f7265737300000000000000000000000000000000000000000000000000000000602082015250565b600061186c60248361147e565b915061187782611810565b604082019050919050565b6000602082019050818103600083015261189b8161185f565b9050919050565b7f45524332303a20617070726f766520746f20746865207a65726f20616464726560008201527f7373000000000000000000000000000000000000000000000000000000000000602082015250565b60006118fe60228361147e565b9150611909826118a2565b604082019050919050565b6000602082019050818103600083015261192d816118f1565b9050919050565b7f45524332303a207472616e736665722066726f6d20746865207a65726f20616460008201527f6472657373000000000000000000000000000000000000000000000000000000602082015250565b600061199060258361147e565b915061199b82611934565b604082019050919050565b600060208201905081810360008301526119bf81611983565b9050919050565b7f45524332303a207472616e7366657220746f20746865207a65726f206164647260008201527f6573730000000000000000000000000000000000000000000000000000000000602082015250565b6000611a2260238361147e565b9150611a2d826119c6565b604082019050919050565b60006020820190508181036000830152611a5181611a15565b9050919050565b7f546f6b656e4c6f636b3a20696e76616c696420746f6b656e207472616e73666560008201527f7200000000000000000000000000000000000000000000000000000000000000602082015250565b6000611ab460218361147e565b9150611abf82611a58565b604082019050919050565b60006020820190508181036000830152611ae381611aa7565b9050919050565b7f45524332303a207472616e7366657220616d6f756e742065786365656473206260008201527f616c616e63650000000000000000000000000000000000000000000000000000602082015250565b6000611b4660268361147e565b9150611b5182611aea565b604082019050919050565b60006020820190508181036000830152611b7581611b39565b9050919050565b7f4e487b7100000000000000000000000000000000000000000000000000000000600052600160045260246000fd5b7f4e487b7100000000000000000000000000000000000000000000000000000000600052601160045260246000fd5b6000611be58261143f565b9150611bf08361143f565b925082821015611c0357611c02611bab565b5b828203905092915050565b6000611c198261143f565b9150611c248361143f565b9250827fffffffffffffffffffffffffffffffffffffffffffffffffffffffffffffffff03821115611c5957611c58611bab565b5b82820190509291505056fea2646970667358221220b43c0c6a87b706dba180d9019fe331688b71c4621d37349a494b16b532c900ce64736f6c634300080a0033",
  "immutableReferences": {},
  "source": "// SPDX-License-Identifier: MIT\npragma solidity 0.8.10;\n\ninterface ERC20Interface {\n    function totalSupply() external view returns (uint256);\n    function balanceOf(address account) external view returns (uint256);\n    function transfer(address recipient, uint256 amount) external returns (bool);\n    function approve(address spender, uint256 amount) external returns (bool);\n    function allowance(address owner, address spender) external view returns (uint256);\n    function transferFrom(address spender, address recipient, uint256 amount) external returns (bool);\n    \n    event Transfer(address indexed from, address indexed to, uint256 amount);\n    event Transfer(address indexed spender, address indexed from, address indexed to, uint256 amount);\n    event Approval(address indexed owner, address indexed spender, uint256 amount);\n}\n\nlibrary SafeMath {\n  \tfunction mul(uint256 a, uint256 b) internal pure returns (uint256) {\n\t\tuint256 c = a * b;\n\t\tassert(a == 0 || c / a == b);\n\t\treturn c;\n  \t}\n\n  \tfunction div(uint256 a, uint256 b) internal pure returns (uint256) {\n\t    uint256 c = a / b;\n\t\treturn c;\n  \t}\n\n  \tfunction sub(uint256 a, uint256 b) internal pure returns (uint256) {\n\t\tassert(b <= a);\n\t\treturn a - b;\n  \t}\n\n  \tfunction add(uint256 a, uint256 b) internal pure returns (uint256) {\n\t\tuint256 c = a + b;\n\t\tassert(c >= a);\n\t\treturn c;\n\t}\n}\n\nabstract contract OwnerHelper {\n  \taddress private _owner;\n\n  \tevent OwnershipTransferred(address indexed preOwner, address indexed nextOwner);\n\n  \tmodifier onlyOwner {\n\t\trequire(msg.sender == _owner, \"OwnerHelper: caller is not owner\");\n\t\t_;\n  \t}\n\n  \tconstructor() {\n            _owner = msg.sender;\n  \t}\n\n       function owner() public view virtual returns (address) {\n           return _owner;\n       }\n\n  \tfunction transferOwnership(address newOwner) onlyOwner public {\n            require(newOwner != _owner);\n            require(newOwner != address(0x0));\n            address preOwner = _owner;\n    \t    _owner = newOwner;\n    \t    emit OwnershipTransferred(preOwner, newOwner);\n  \t}\n}\n\ncontract MyLittlePreciousTokenV2 is ERC20Interface, OwnerHelper {\n    using SafeMath for uint256;\n\n    mapping (address => uint256) private _balances;\n    mapping (address => mapping (address => uint256)) public _allowances;\n\n    uint256 public _totalSupply;\n    string public _name;\n    string public _symbol;\n    uint8 public _decimals;\n    bool public _tokenLock;\n    mapping(address => bool) public _personalTokenLock;\n    \n    constructor(string memory getName, string memory getSymbol) {\n        _name = getName;\n        _symbol = getSymbol;\n        _decimals = 18;\n        _totalSupply = 1000e18;\n        _balances[msg.sender] = _totalSupply;\n        _tokenLock = true;\n    }\n    \n    function name() public view returns (string memory) {\n        return _name;\n    }\n    \n    function symbol() public view returns (string memory) {\n        return _symbol;\n    }\n    \n    function decimals() public view returns (uint8) {\n        return _decimals;\n    }\n    \n    function totalSupply() external view virtual override returns (uint256) {\n        return _totalSupply;\n    }\n    \n    function balanceOf(address account) external view virtual override returns (uint256) {\n        return _balances[account];\n    }\n    \n    function transfer(address recipient, uint amount) public virtual override returns (bool) {\n        _transfer(msg.sender, recipient, amount);\n        emit Transfer(msg.sender, recipient, amount);\n        return true;\n    }\n    \n    function allowance(address owner, address spender) external view override returns (uint256) {\n        return _allowances[owner][spender];\n    }\n    \n    function approve(address spender, uint256 amount) external virtual override returns (bool) {\n        _approve(msg.sender, spender, amount);\n        return true;\n    }\n    \n    function transferFrom(address sender, address recipient, uint256 amount) external virtual override returns (bool) {\n        _transfer(sender, recipient, amount);\n        emit Transfer(msg.sender, sender, recipient, amount);\n        uint256 currentAllowance = _allowances[sender][msg.sender];\n        require(currentAllowance >= amount, \"ERC20: transfer amount exceeds allowance\");\n        _approve(sender, msg.sender, currentAllowance.sub(amount));\n        return true;\n    }\n    \n    function _transfer(address sender, address recipient, uint256 amount) internal virtual {\n        require(sender != address(0), \"ERC20: transfer from the zero address\");\n        require(recipient != address(0), \"ERC20: transfer to the zero address\");\n        require(isTokenLock(sender, recipient) == false, \"TokenLock: invalid token transfer\");\n        uint256 senderBalance = _balances[sender];\n        require(senderBalance >= amount, \"ERC20: transfer amount exceeds balance\");\n        _balances[sender] = senderBalance.sub(amount);\n        _balances[recipient] = _balances[recipient].add(amount);\n    }\n    \n    function _approve(address owner, address spender, uint256 amount) internal virtual {\n        require(owner != address(0), \"ERC20: approve from the zero address\");\n        require(spender != address(0), \"ERC20: approve to the zero address\");\n        _allowances[owner][spender] = amount;\n        emit Approval(owner, spender, amount);\n    }\n\n    function isTokenLock(address from, address to) public view returns (bool lock) {\n        lock = false;\n\n        if(_tokenLock == true)\n        {\n             lock = true;\n        }\n\n        if(_personalTokenLock[from] == true || _personalTokenLock[to] == true) {\n             lock = true;\n        }\n    }\n\n    function removeTokenLock() onlyOwner public {\n        require(_tokenLock == true);\n        _tokenLock = false;\n    }\n\n    function removePersonalTokenLock(address _who) onlyOwner public {\n        require(_personalTokenLock[_who] == true);\n        _personalTokenLock[_who] = false;\n    }\n}\n",
  "sourcePath": "/Users/robinkwon/Blockchain/ERC20_practice/contracts/MyLittlePreciousTokenV2.sol",
  "compiler": {
    "name": "solc",
    "version": "0.8.10+commit.fc410830.Emscripten.clang"
  },
  "schemaVersion": "3.4.6",
  "updatedAt": "2022-03-28T05:31:44.217Z",
  "networkType": "ethereum",
  "devdoc": {
    "kind": "dev",
    "methods": {},
    "version": 1
  },
  "userdoc": {
    "kind": "user",
    "methods": {},
    "version": 1
  }
}